:100000000C94BC000C94D9000C94460D0C94D900AF
:100010000C94D9000C94D9000C94D9000C94D900FC
:100020000C94D9000C94D9000C94D9000C94D900EC
:100030000C94D9000C94D9000C94D9000C94D900DC
:100040000C94D9000C94D9000C94D9000C94D900CC
:100050000C94D9000C94D9000C94D9000C94D900BC
:100060000C94D9000C94D9000C94D9000C94D900AC
:100070000C94D9000C94D9000C94D9000C94D9009C
:100080000C94D9000C94D9000C94D9000C94D9008C
:100090000C94D9000C94D9000C94D9000C94D9007C
:1000A0000C94D9000C94D9000C94D9000C94D9006C
:1000B0000C94D9000C94D9000C94D9000C94D9005C
:1000C0000C94D9000C94D9000C94D9000C94D9004C
:1000D0000C94D9000C94D9000C94D9000C94D9003C
:1000E0000C94D9000C94D9000C940A0A0C94740A4C
:1000F0000C94D9000C94D9000C94D9000C94D9001C
:100100000C94D9000C94D9000C94D9000C94D9000B
:100110000C94DD040C94D9000C94D9000C94D900F3
:100120000C94D9000C94D9000C94D9000C94D900EB
:100130000C94D9000C94D9000C94D9000C94D900DB
:100140000C94D9000C94D9000C94D9000C94D900CB
:100150000C94D9000C94D9000C94D9000C94D900BB
:100160000C94D9000C94D9000C94D9000C94D900AB
:100170000C94D9000C94D90011241FBECFEFDFE2FC
:10018000DEBFCDBF10E2A0E0B0E2E0E9FCE102C0DA
:1001900005900D92A231B107D9F712E2A2E1B0E2C7
:1001A00001C01D92AA32B107E1F70E945A020C94D5
:1001B000460E0C940000893221F4E0E8F3E014824A
:1001C000089581E0E0E8F3E084830895E0E8F3E057
:1001D0008DE0808383E082838AE20E94DB000895C1
:1001E000813031F0823041F48DE0809380030895B6
:1001F0008BE080938003089589E0809380030895C5
:10020000813029F488E2E0E8F3E08283089583E016
:10021000E0E8F3E0828308950895E0E0F2E080E111
:100220008283118291E0908381A388E181A7089560
:1002300081E8E0E0F2E080A383A18823E9F3E0E035
:10024000F2E081E083A384A195A1089581E8E0E034
:10025000F2E080A783A58823E9F3E0E0F2E081E003
:1002600083A784A595A50895CF92DF92EF92FF9280
:100270000F931F93CF93DF938C011092192010924C
:100280001A208FEF9FEF80931B2090931C20011565
:10029000110549F1C0E0D0E0CC24DD2476010E94B4
:1002A0001801AC0160E070E0C40ED51EE61EF71E1A
:1002B00020911B2030911C208217930720F48093FB
:1002C0001B2090931C202091192030911A20281770
:1002D000390720F48093192090931A202196C01793
:1002E000D107E9F603C0CC24DD2476010093162063
:1002F000980140E050E0C701B6010E94D20D209362
:10030000172030931820DF91CF911F910F91FF900C
:10031000EF90DF90CF900895CF92DF92EF92FF920F
:100320000F931F93CF93DF938C011092192010929B
:100330001A208FEF9FEF80931B2090931C200115B4
:10034000110549F1C0E0D0E0CC24DD2476010E9403
:100350002601AC0160E070E0C40ED51EE61EF71E5B
:1003600020911B2030911C208217930720F480934A
:100370001B2090931C202091192030911A202817BF
:10038000390720F48093192090931A202196C017E2
:10039000D107E9F603C0CC24DD24760100931620B2
:1003A000980140E050E0C701B6010E94D20D2093B1
:1003B000172030931820DF91CF911F910F91FF905C
:1003C000EF90DF90CF9008950895E0E2F3E08DE0A4
:1003D000808380E4818388E082830895893231F4C8
:1003E000E0E2F3E080818B7F80830895E0E2F3E038
:1003F0008081846080830895893231F4E0E2F3E003
:100400008081877F80830895E0E2F3E080818860C7
:1004100080830895E0E2F3E0808F918F808D918D4D
:100420000895E0E2F3E0828F938F828D938D08959B
:10043000E0E2F3E0808D918D0895E0E2F3E0828DBB
:10044000938D089508958FE190E262E070E042E0BC
:1004500050E00E94100E8DE190E260E070E042E01A
:1004600050E00E94100E08958FE190E262E070E08B
:1004700042E050E00E94F40D8DE190E260E070E017
:1004800042E050E00E94F40D80911F2090912020C6
:100490000E940A0280911D2090911E200E9411024C
:1004A00008950E943402089582E090E00E94000EB8
:1004B000089508950E94EA0CE0E5F0E082E282836C
:1004C0008BE0808380E00E94300DE0E5F0E08181E8
:1004D0008B30E9F780E00E942C0DE0E5F0E082E04F
:1004E000868381E08093600098ED94BF8093400004
:1004F0008AE0808380EA9AE060E00E94040680EA55
:100500009AE00E948D0C80EB99E060E00E94040666
:100510000E940D010E94E5010E94E6000E94440332
:100520000E945102E0E0F8E087E080838DE390E0F4
:1005300086A397A387E8E0EAF0E08283789480E0DE
:100540000E942C0D81E00E942C0D80E061E00E9451
:100550001B0D12E0EE24CC24DD2401E0FF24F394F3
:100560000F2EF5E0BF2EF02DC0E0D8E001C00195C0
:100570000E9456050E948A0D0E94450D0E94680D3A
:100580000E94D30C0E945902809115208130A9F459
:100590000E947A03882399F40894C11CD11C88EE28
:1005A000C81683E0D80658F0F092122080E00E942E
:1005B000300D8F2D0E94300D02C0CC24DD2480919F
:1005C0001220813021F0853009F04FC036C080E024
:1005D00094E00E948C0180911720909118209C013A
:1005E000220F331F220F331F820F931F969587957B
:1005F00096958795969587959C0126553F4F209314
:100600001F20309320208E589E4F80931D20909362
:100610001E20C9010E940A0280911D2090911E2077
:100620000E9411020E94230280E00E942C0D8F2D57
:100630000E942C0DB092122018C08091152082309B
:1006400049F41092122080E00E942C0D8F2D0E9400
:100650002C0D0BC0E3948AE08E1538F480E00E94E4
:10066000340D8F2D0E94340DEE248C8580FFFDCF3C
:10067000FC8680E0612F0E941B0D100F812F81509E
:100680008E3F08F074CF74CF80E090E280932622F2
:10069000909327220895CF93DF93E0E0FAE085E07E
:1006A000808311821282138214828AE20E94EE01F8
:1006B00080ED97E00E941102C0E8D3E083E08A83D6
:1006C00089E20E94DB008DE38883E0E0F6E080E8C9
:1006D0008683818310921220DF91CF91089510922A
:1006E000000A8AE20E94EE018AE20E94FC010E9456
:1006F000E600089580E00E94690D0895809310201F
:100700000895E0E0FAE010A211A28FEF8487089527
:100710000E94810308959C016817790730F481E0F5
:100720002417350718F080E0089580E008958FE4DD
:100730008093112080E20E94110C8CE30E94110C26
:100740008DE20E94110C8FE40E94110C8EE40E9435
:10075000110C08958EE48093112080E20E94110C08
:100760008CE30E94110C8DE20E94110C8FE40E9418
:10077000110C86E40E94110C86E40E94110C08956D
:1007800080911120803531F080E58093112084E143
:100790008093132080E20E94110C8CE30E94110CC4
:1007A0008DE20E94110C80E50E94110C85E50E94EB
:1007B000110C8CE40E94110C83E50E94110C85E45D
:1007C0000E94110C089580E20E94110C8CE30E949B
:1007D000110C8DE20E94110C87E50E94110C84E53A
:1007E0000E94110C86E40E94110C81E20E94110CFF
:1007F000089580930F2082E380930E2008959091B6
:100800000F20953809F442C0963840F49338D1F05F
:10081000943858F5923809F05AC00DC0973809F449
:100820004AC0973808F443C0983809F448C099384A
:1008300009F04DC048C0813409F04CC083E80E94E3
:10084000F9030895823429F0833439F0813449F46E
:10085000089584E80E94F903089585E80E94F90349
:10086000089582E80E94F9030895823419F08334D0
:1008700049F404C086E80E94F903089587E80E94BD
:10088000F903089582E80E94F9030895823419F06B
:10089000833449F404C088E80E94F903089589E884
:1008A0000E94F903089582E80E94F903089582E8FE
:1008B00080930F20089582E880930F20089582E8A6
:1008C00080930F20089582E880930F20089582E896
:1008D00080930F200895CF93DF93EC0180EB99E094
:1008E0006DE20E94620680EB99E06DE20E94620672
:1008F00080EB99E06DE20E94620680EB99E0BE0118
:100900000E94660880EB99E06DE20E94620680EB2F
:1009100099E06DE00E946206CE0160E070E140E087
:1009200050E20E948B03813019F481E40E94FF039E
:10093000CE0160E070E240E050E30E948B03813022
:1009400019F482E40E94FF03CE0160E070E440E00D
:1009500050E50E948B03813019F483E40E94FF0369
:10096000CE0160E070E740E050E80E948B038130E8
:1009700019F484E40E94FF03DF91CF910895CF938F
:10098000DF93E0E0FAE0C0A1D1A1848580FD12C030
:100990008DE00E94110C8AE00E94110C8DE20E94F1
:1009A000110C8DE20E94110CCE010E94000ACE01B2
:1009B0000E946B04DF91CF9108951F920F920FB6A2
:1009C0000F9211242F933F934F935F936F937F93D5
:1009D0008F939F93AF93BF93CF93DF93EF93FF9347
:1009E000E0E8F3E0878184FF28C081E00E94300DB9
:1009F00080911020873511F40E948103809110208E
:100A0000883509F040C0E0E0FAE0C0A1D1A18485BA
:100A100080FD39C08DE00E94110C8AE00E94110C0B
:100A20008DE20E94110C8DE20E94110CCE010E94F9
:100A3000000ACE010E946B0426C081E00E942C0DAA
:100A4000809110208735C9F4E0E0FAE0C0A1D1A17F
:100A5000848580FD12C08DE00E94110C8AE00E9406
:100A6000110C8DE20E94110C8DE20E94110CCE013E
:100A70000E94000ACE010E946B04809110208835EC
:100A800011F40E948103FF91EF91DF91CF91BF910B
:100A9000AF919F918F917F916F915F914F913F9116
:100AA0002F910F900FBE0F901F90189580910E20E0
:100AB000882329F0815080930E20882319F482E83E
:100AC00080930F20809111208F3419F08035D1F45C
:100AD00005C080E8E0E0F6E085830895809113206A
:100AE000882341F480E8E0E0F6E086838EE480939A
:100AF0001120089581508093132080E8E0E0F6E013
:100B00008583089580E8E0E0F6E0868308956F929B
:100B10007F928F929F92AF92BF92CF92DF92EF928D
:100B2000FF920F931F93CF93DF930E949A0CD09064
:100B300021208D3008F459C090E00F2EF3EF6F2E76
:100B4000FFEF7F2EF02D680E791E77200CF44DC03C
:100B5000CC240F2EFCE18F2EF1E29F2EF02DB82C2D
:100B6000A92C8401035F1F4F0F2EF2E2EF2EF0E25B
:100B7000FF2EF02D89EF8D1508F4DD242D2D30E0AA
:100B80002A5F3040D401CB2DDA2DC90186509F4F0A
:100B90008A3F910534F0F701E20FF31F80818C93B7
:100BA00005C08E0D9F1DFC0180818C932F5F3F4FF0
:100BB0001196A017B10749F7E0912622F09127225C
:100BC00021E091918991981320E0C017D107C9F7CE
:100BD000213021F40E94C0030E94880CD394C39456
:100BE0008C2D90E0681679062CF6DF91CF911F913D
:100BF0000F91FF90EF90DF90CF90BF90AF909F90BC
:100C00008F907F906F900895FC0188E0E03AF8079C
:100C100051F4A0E4B6E088E011968C9311971596F4
:100C20008C93159737C088E0E03BF80751F4A0E4B7
:100C3000B6E080E811968C93119715968C931597D2
:100C400029C089E0E03AF80751F4A0E6B6E088E070
:100C500011968C93119715968C9315971BC089E06C
:100C6000E03BF80751F4A0E6B6E080E811968C93DB
:100C7000119715968C9315970DC08AE0E03AF80706
:100C800049F4A0E8B6E088E011968C931197159688
:100C90008C931597613039F0623051F48CEA878378
:100CA00085EC868309C088EA87838EE6868304C044
:100CB00084EA878387E18683138288E1848383E0E3
:100CC00085830895FC01818185FFFDCF60830895B0
:100CD000CF92DF92EF92FF920F931F93CF93DF9308
:100CE0006C01E62FF72FEF0109900020E9F721971B
:100CF000CE1BDF0B79F0E62EF72E00E010E0F701B7
:100D000061917F01C6010E9462060F5F1F4F0C17A1
:100D10001D07A9F7DF91CF911F910F91FF90EF90E1
:100D2000DF90CF900895CF93DF93EC01673009F403
:100D30009DC0683090F4633009F458C0643030F4DA
:100D40006130A1F1623008F041C020C0653009F483
:100D50006DC0663008F07AC059C06B3009F4C6C067
:100D60006C3038F4693009F4A1C06A3008F0AEC0C4
:100D70008DC06D3009F4DAC06D3008F4C7C06E3034
:100D800009F4E4C06F3009F000C1F0C060E30E94D4
:100D90006206CE0160E30E946206CE0160E30E941B
:100DA0006206CE0160E30E946206EFC060E30E942B
:100DB0006206CE0160E30E946206CE0160E30E94FB
:100DC0006206CE0161E30E946206DFC060E30E941A
:100DD0006206CE0160E30E946206CE0161E30E94DA
:100DE0006206CE0160E30E946206CFC060E30E940B
:100DF0006206CE0160E30E946206CE0161E30E94BA
:100E00006206CE0161E30E946206BFC060E30E94F9
:100E10006206CE0161E30E946206CE0160E30E9499
:100E20006206CE0160E30E946206AFC060E30E94EA
:100E30006206CE0161E30E946206CE0160E30E9479
:100E40006206CE0161E30E9462069FC060E30E94D9
:100E50006206CE0161E30E946206CE0161E30E9458
:100E60006206CE0160E30E9462068FC060E30E94CA
:100E70006206CE0161E30E946206CE0161E30E9438
:100E80006206CE0161E30E9462067FC061E30E94B8
:100E90006206CE0160E30E946206CE0160E30E941A
:100EA0006206CE0160E30E9462066FC061E30E94A9
:100EB0006206CE0160E30E946206CE0160E30E94FA
:100EC0006206CE0161E30E9462065FC061E30E9498
:100ED0006206CE0160E30E946206CE0161E30E94D9
:100EE0006206CE0160E30E9462064FC061E30E9489
:100EF0006206CE0160E30E946206CE0161E30E94B9
:100F00006206CE0161E30E9462063FC061E30E9477
:100F10006206CE0161E30E946206CE0160E30E9498
:100F20006206CE0160E30E9462062FC061E30E9468
:100F30006206CE0161E30E946206CE0160E30E9478
:100F40006206CE0161E30E9462061FC061E30E9457
:100F50006206CE0161E30E946206CE0161E30E9457
:100F60006206CE0160E30E9462060FC061E30E9448
:100F70006206CE0161E30E946206CE0161E30E9437
:100F80006206CE0161E30E946206DF91CF9108956F
:100F90001F93CF93DF93EC01162F62E60E94620647
:100FA000612F62956F70CE010E949306612F6F7062
:100FB000CE010E949306DF91CF911F910895673073
:100FC00009F43FC0683070F4633059F1643028F49C
:100FD0006130F9F0623008F518C0653051F16630C3
:100FE00060F523C06B30E9F16C3028F4693089F189
:100FF0006A3098F52AC06D30E1F16D30B0F16E3095
:10100000E1F16F3009F040C03CC060E30E9462062D
:10101000089561E30E946206089562E30E946206F9
:10102000089563E30E946206089564E30E946206E5
:10103000089565E30E946206089566E30E946206D1
:10104000089567E30E946206089568E30E946206BD
:10105000089569E30E946206089561E40E946206B1
:10106000089562E40E946206089563E40E946206A5
:10107000089564E40E946206089565E40E94620691
:10108000089566E40E94620608951F93CF93DF934C
:10109000EC01162F62956F700E94DF07612F6F7051
:1010A000CE010E94DF07DF91CF911F9108951F931A
:1010B000CF93DF93EC01142F0E944508CE01612FDE
:1010C0000E944508DF91CF911F9108951F93CF9300
:1010D000DF93EC01162F672F0E944508CE01612F88
:1010E0000E944508DF91CF911F910895873009F440
:1010F00087C0883088F4833009F44EC0843028F4E7
:10110000813081F18230D8F520C0853009F45EC08D
:10111000863008F068C04DC08B3009F4A5C08C3013
:1011200038F4893009F486C08A3008F090C075C060
:101130008D3009F4B3C08D3008F4A3C08E3009F4AB
:10114000BAC08F3009F0D0C0C3C080E30E94110C38
:1011500080E30E94110C80E30E94110C80E30E9446
:10116000110C089580E30E94110C80E30E94110C81
:1011700080E30E94110C81E30E94110C089580E32A
:101180000E94110C80E30E94110C81E30E94110C5B
:1011900080E30E94110C089580E30E94110C80E30B
:1011A0000E94110C81E30E94110C81E30E94110C3A
:1011B000089580E30E94110C81E30E94110C80E3EA
:1011C0000E94110C80E30E94110C089580E30E949C
:1011D000110C81E30E94110C80E30E94110C81E349
:1011E0000E94110C089580E30E94110C81E30E947B
:1011F000110C81E30E94110C80E30E94110C0895F0
:1012000080E30E94110C81E30E94110C81E30E9493
:10121000110C81E30E94110C089581E30E94110CCE
:1012200080E30E94110C80E30E94110C80E30E9475
:10123000110C089581E30E94110C80E30E94110CAF
:1012400080E30E94110C81E30E94110C089581E358
:101250000E94110C80E30E94110C81E30E94110C8A
:1012600080E30E94110C089581E30E94110C80E339
:101270000E94110C81E30E94110C81E30E94110C69
:10128000089581E30E94110C81E30E94110C80E318
:101290000E94110C80E30E94110C089581E30E94CA
:1012A000110C81E30E94110C80E30E94110C81E378
:1012B0000E94110C089581E30E94110C81E30E94A9
:1012C000110C81E30E94110C80E30E94110C08951F
:1012D00081E30E94110C81E30E94110C81E30E94C2
:1012E000110C81E30E94110C0895CF93C82F82E660
:1012F0000E94110C8C2F82958F700E9476088C2F83
:101300008F700E947608CF910895873009F43FC00E
:10131000883070F4833059F1843028F48130F9F04A
:10132000823008F518C0853051F1863060F523C051
:101330008B30E9F18C3028F4893089F18A3098F5C6
:101340002AC08D30E1F18D30B0F18E30E1F18F3077
:1013500009F040C03CC080E30E94110C089581E375
:101360000E94110C089582E30E94110C089583E3FA
:101370000E94110C089584E30E94110C089585E3E6
:101380000E94110C089586E30E94110C089587E3D2
:101390000E94110C089588E30E94110C089589E3BE
:1013A0000E94110C089581E40E94110C089582E4BA
:1013B0000E94110C089583E40E94110C089584E4A6
:1013C0000E94110C089585E40E94110C089586E492
:1013D0000E94110C0895CF93C82F82958F700E94A0
:1013E00085098C2F8F700E948509CF910895CF9326
:1013F000C62F0E94EB098C2F0E94EB09CF91089514
:10140000CF93C82F892F0E94EB098C2F0E94EB09E4
:10141000CF9108951F920F920FB60F9211242F9320
:101420003F938F939F93AF93BF93EF93FF93E0917D
:101430002822F091292282E290E212C0208130918C
:101440002422DC01A30FB11D2C93209124222F5FB5
:1014500020932422209124222A3F10F0109224224B
:1014600021812223A4F430912422209121203217BB
:1014700030F02091242230912120231B06C020919E
:101480002422309121202650231B2A3FB8F2FF91BD
:10149000EF91BF91AF919F918F913F912F910F90BD
:1014A0000FBE0F901F901895E0912822F0912922ED
:1014B0008381806383830895E0912822F09129221B
:1014C00083818F7C83830895E0912822F0912922E3
:1014D0008381826083830895E0912822F0912922FC
:1014E00083818C7F838308951F920F920FB60F9292
:1014F00011242F933F934F935F936F937F938F9319
:101500009F93AF93BF93EF93FF93E0912822F091C5
:101510002922818185FD1BC030C020912522309178
:1015200025223F5F30932522309125223A3F10F04B
:1015300010922522DC01A20FB11D2C912083E09195
:101540002822F0912922218125FD03C016C08AE2BC
:1015500091E23091292120912522321730F02091FB
:10156000292130912522231B06C020912921309169
:1015700025222650231B222381F690912921809138
:101580002522981730F08091292190912522891BDE
:1015900006C080912921909125228650891B88239D
:1015A00019F00E94640A02C00E946C0AFF91EF9138
:1015B000BF91AF919F918F917F916F915F914F916B
:1015C0003F912F910F900FBE0F901F901895E091B3
:1015D0002822F0912922818185FD1BC030C02091F5
:1015E0002522309125223F5F3093252230912522FC
:1015F0003A3F10F010922522DC01A20FB11D2C9170
:101600002083E0912822F0912922218125FD03C029
:1016100016C08AE291E230912921209125223217C9
:1016200030F02091292130912522231B06C02091E2
:101630002921309125222650231B222381F69091C7
:10164000292180912522981730F0809129219091AD
:101650002522891B06C08091292190912522865040
:10166000891B882319F00E94640A08950E946C0A5D
:101670000895E0912822F091292282E290E212C09E
:10168000208130912422DC01A30FB11D2C932091E5
:1016900024222F5F20932422209124222A3F10F01D
:1016A0001092242221812223A4F43091242220911B
:1016B0002120321730F02091242230912120231B49
:1016C00006C020912422309121202650231B2A3F3E
:1016D000B8F2089510922921109225220895909130
:1016E000292180912522981730F08091292190910D
:1016F0002522891B089580912921909125228650C9
:10170000891B0895CF92DF92EF92FF920F931F9360
:10171000CF93DF93E82FF92FDF010D900020E9F739
:1017200011976D01CE1ADF0A09F472C0E82EF92E66
:1017300000E010E0CAE2D1E2F70181917F019091CF
:101740002921FE01E90FF11D8083809129218F5FFE
:1017500080932921809129218A3F10F0109229211C
:10176000A0912822B091292211968C91119785FD84
:101770001CC02FC080912522909125229F5F9093BD
:101780002522909125229A3F10F010922522FE01E9
:10179000E80FF11D80818C93A0912822B09129221D
:1017A00011968C91119785FF14C0909129218091F9
:1017B0002522981730F08091292190912522891BAC
:1017C00006C080912921909125228650891B88236B
:1017D00089F69091292180912522981730F08091E7
:1017E000292190912522891B06C080912921909161
:1017F00025228650891B882319F00E94640A02C0A2
:101800000E946C0A0F5F1F4F0C151D0509F094CF45
:10181000DF91CF911F910F91FF90EF90DF90CF90CC
:10182000089590912921EAE2F1E2E90FF11D808308
:10183000809129218F5F80932921809129218A3FDE
:1018400010F010922921E0912822F0912922818123
:1018500085FD1BC030C020912522309125223F5F9D
:1018600030932522309125223A3F10F01092252204
:10187000DC01A20FB11D2C912083E0912822F09170
:101880002922218125FD03C016C08AE291E2309110
:10189000292120912522321730F0209129213091E1
:1018A0002522231B06C02091292130912522265074
:1018B000231B222381F690912921809125229817BC
:1018C00030F08091292190912522891B06C08091BA
:1018D0002921909125228650891B882319F00E9486
:1018E000640A08950E946C0A0895809125229091BF
:1018F00025229F5F90932522909125229A3F10F0F8
:1019000010922522EAE2F1E2E80FF11D80810895AC
:1019100010922422109221200895809328229093DF
:1019200029220E946A0B0E94880C0E94540A0E947D
:10193000640A08959091242280912120981730F014
:101940008091242290912120891B08958091242246
:10195000909121208650891B089590912422E2E2E3
:10196000F0E2E90FF11D8083809124228F5F809344
:101970002422809124228A3F10F01092242208957C
:1019800080912120909121209F5F90932120909120
:1019900021209A3F10F010922120E2E2F0E2E80FBD
:1019A000F11D808108959091242280912120981723
:1019B00030F08091242290912120891B06C08091D3
:1019C0002422909121208650891B882311F00E94A7
:1019D00087050895E0E6F6E081E18183858380E470
:1019E000808B848BE0E0F9E057E0508343E1418352
:1019F0008FEF90E086A397A320E830E020A731A7DF
:101A0000E0E4F9E05083418386A397A380E190E06E
:101A100080A791A7E0E4F6E08CE3828388E9858BD8
:101A2000848B838B84E0828783E081878AE9828B41
:101A3000109215200895882319F0813061F406C0B2
:101A400070E0E0E4F9E060AF71AF089570E0E0E0CD
:101A5000F9E060AF71AF089560E00E941B0D08953A
:101A60006FEF0E941B0D0895882319F0813061F4F7
:101A700006C0E0E4F9E080A5809580A70895E0E045
:101A8000F9E080A5809580A7089508951F920F9290
:101A90000FB60F9211248F93EF93FF93E0E4F6E0DB
:101AA00082898A3931F489E9828B81E0809315201B
:101AB00007C08AE9E0E4F6E0828B82E0809315209B
:101AC000FF91EF918F910F900FBE0F901F9018957F
:101AD0000895813069F0813018F08230C9F410C067
:101AE000E0E4F6E0908581E095FF13C080E0089582
:101AF000E0E4F6E0908581E094FF0BC080E008957B
:101B0000E0E4F6E0908581E093FF03C080E0089573
:101B100080E0089580E00E94690D813051F4809149
:101B20001420853379F085E3809314200E944B03C1
:101B300009C080911420863329F086E38093142015
:101B40000E946F0381E00E94690D813061F40E9460
:101B50007A03882321F481E00E9400010FC088E508
:101B60000E947E030BC00E947A03882321F482E046
:101B70000E94000103C087E50E947E0382E00E946C
:101B8000690D813041F40E947A03882351F482E088
:101B90000E94F00008950E947A03882311F40E94A5
:101BA000F0000895A1E21A2EAA1BBB1BFD010DC077
:101BB000AA1FBB1FEE1FFF1FA217B307E407F507FD
:101BC00020F0A21BB30BE40BF50B661F771F881FD9
:101BD000991F1A9469F760957095809590959B016F
:101BE000AC01BD01CF010895E0ECF1E0A785A7FDB0
:101BF000FDCFA485A860A4876050704F0C943D0E63
:101C000003D0808199270895E0ECF1E0378537FD16
:101C1000FDCF348538603487FC01E050F04F0895E3
:101C2000DC01CB0103C02D910E941B0E415050409E
:101C3000D0F70895262FE0ECF1E0378537FDFDCF92
:101C40003485377F3487378531FF09C036E33287E3
:101C500038ED34BF31E03387378537FDFDCF33E3CF
:101C60003287808391831282248325E3228728EDA3
:101C700031E024BF338701960895FB01DC0102C0E7
:101C800001900D9241505040D8F70895F894FFCF3D
:101C90006C6576656C5F7265737461727400328214
:021CA000574E9D
:00000001FF
