:100000000C94BC000C94D9000C944A0D0C94D900AB
:100010000C94D9000C94D9000C94D9000C94D900FC
:100020000C94D9000C94D9000C94D9000C94D900EC
:100030000C94D9000C94D9000C94D9000C94D900DC
:100040000C94D9000C94D9000C94D9000C94D900CC
:100050000C94D9000C94D9000C94D9000C94D900BC
:100060000C94D9000C94D9000C94D9000C94D900AC
:100070000C94D9000C94D9000C94D9000C94D9009C
:100080000C94D9000C94D9000C94D9000C94D9008C
:100090000C94D9000C94D9000C94D9000C94D9007C
:1000A0000C94D9000C94D9000C94D9000C94D9006C
:1000B0000C94D9000C94D9000C94D9000C94D9005C
:1000C0000C94D9000C94D9000C94D9000C94D9004C
:1000D0000C94D9000C94D9000C94D9000C94D9003C
:1000E0000C94D9000C94D9000C940E0A0C94780A44
:1000F0000C94D9000C94D9000C94D9000C94D9001C
:100100000C94D9000C94D9000C94D9000C94D9000B
:100110000C94E1040C94D9000C94D9000C94D900EF
:100120000C94D9000C94D9000C94D9000C94D900EB
:100130000C94D9000C94D9000C94D9000C94D900DB
:100140000C94D9000C94D9000C94D9000C94D900CB
:100150000C94D9000C94D9000C94D9000C94D900BB
:100160000C94D9000C94D9000C94D9000C94D900AB
:100170000C94D9000C94D90011241FBECFEFDFE2FC
:10018000DEBFCDBF10E2A0E0B0E2E8E9FCE102C0D2
:1001900005900D92A231B107D9F712E2A2E1B0E2C7
:1001A00001C01D92AA32B107E1F70E945A020C94D5
:1001B0004A0E0C940000893221F4E0E8F3E0148246
:1001C000089581E0E0E8F3E084830895E0E8F3E057
:1001D0008DE0808383E082838AE20E94DB000895C1
:1001E000813031F0823041F48DE0809380030895B6
:1001F0008BE080938003089589E0809380030895C5
:10020000813029F488E2E0E8F3E08283089583E016
:10021000E0E8F3E0828308950895E0E0F2E080E111
:100220008283118291E0908381A388E181A7089560
:1002300081E8E0E0F2E080A383A18823E9F3E0E035
:10024000F2E081E083A384A195A1089581E8E0E034
:10025000F2E080A783A58823E9F3E0E0F2E081E003
:1002600083A784A595A50895CF92DF92EF92FF9280
:100270000F931F93CF93DF938C011092192010924C
:100280001A208FEF9FEF80931B2090931C20011565
:10029000110549F1C0E0D0E0CC24DD2476010E94B4
:1002A0001801AC0160E070E0C40ED51EE61EF71E1A
:1002B00020911B2030911C208217930720F48093FB
:1002C0001B2090931C202091192030911A20281770
:1002D000390720F48093192090931A202196C01793
:1002E000D107E9F603C0CC24DD2476010093162063
:1002F000980140E050E0C701B6010E94D60D20935E
:10030000172030931820DF91CF911F910F91FF900C
:10031000EF90DF90CF900895CF92DF92EF92FF920F
:100320000F931F93CF93DF938C011092192010929B
:100330001A208FEF9FEF80931B2090931C200115B4
:10034000110549F1C0E0D0E0CC24DD2476010E9403
:100350002601AC0160E070E0C40ED51EE61EF71E5B
:1003600020911B2030911C208217930720F480934A
:100370001B2090931C202091192030911A202817BF
:10038000390720F48093192090931A202196C017E2
:10039000D107E9F603C0CC24DD24760100931620B2
:1003A000980140E050E0C701B6010E94D60D2093AD
:1003B000172030931820DF91CF911F910F91FF905C
:1003C000EF90DF90CF9008950895E0E2F3E08DE0A4
:1003D000808380E4818388E082830895893231F4C8
:1003E000E0E2F3E080818B7F80830895E0E2F3E038
:1003F0008081846080830895893231F4E0E2F3E003
:100400008081877F80830895E0E2F3E080818860C7
:1004100080830895E0E2F3E0808F918F808D918D4D
:100420000895E0E2F3E0828F938F828D938D08959B
:10043000E0E2F3E0808D918D0895E0E2F3E0828DBB
:10044000938D089508958FE190E262E070E042E0BC
:1004500050E00E94140E8DE190E260E070E042E016
:1004600050E00E94140E08958FE190E262E070E087
:1004700042E050E00E94F80D8DE190E260E070E013
:1004800042E050E00E94F80D80911F2090912020C2
:100490000E940A0280911D2090911E200E9411024C
:1004A00008950E943402089582E090E00E94040EB4
:1004B000089508950E94EE0CE0E5F0E082E2828368
:1004C0008BE0808380E00E94340DE0E5F0E08181E4
:1004D0008B30E9F780E00E94300DE0E5F0E082E04B
:1004E000868381E08093600098ED94BF8093400004
:1004F0008AE0808380EA9AE060E00E94080680EA51
:100500009AE00E94910C80EB99E060E00E9408065E
:100510000E940D010E94E5010E94E6000E9448032E
:100520000E945102E0E0F8E087E080838DE390E0F4
:1005300086A397A387E8E0EAF0E08283789480E0DE
:100540000E94300D81E00E94300D80E061E00E9449
:100550001F0D12E0EE24CC24DD2401E0FF24F394EF
:100560000F2EF5E0BF2EF02DC0E0D8E001C00195C0
:100570000E945A050E948E0D0E94490D0E946C0D2A
:100580000E94D70C0E945902809115208130C9F435
:100590000E947E038823B9F480911220882399F465
:1005A0000894C11CD11C88EEC81683E0D80658F008
:1005B000F092122080E00E94340D8F2D0E94340DA5
:1005C00002C0CC24DD2480911220813021F08530BE
:1005D00009F04FC036C080E094E00E948C01809109
:1005E0001720909118209C01220F331F220F331FD8
:1005F000820F931F969587959695879596958795E3
:100600009C0126553F4F20931F20309320208E5869
:100610009E4F80931D2090931E20C9010E940A02C4
:1006200080911D2090911E200E9411020E942302A1
:1006300080E00E94300D8F2D0E94300DB09212206C
:1006400018C080911520823049F41092122080E069
:100650000E94300D8F2D0E94300D0BC0E39484E179
:100660008E1538F480E00E94380D8F2D0E94380DD1
:10067000EE248C8580FFFDCFFC8680E0612F0E94F8
:100680001F0D100F812F81508E3F08F070CF70CF5B
:1006900080E090E280932622909327220895CF93C2
:1006A000DF93E0E0FAE085E080831182128213821A
:1006B00014828AE20E94EE0180ED97E00E9411020E
:1006C000C0E8D3E083E08A8389E20E94DB008DE307
:1006D0008883E0E0F6E080E8868381831092122030
:1006E000DF91CF9108951092000A8AE20E94EE01F4
:1006F0008AE20E94FC010E94E600089580E00E94C8
:100700006D0D0895809310200895E0E0FAE010A2A6
:1007100011A28FEF848708950E94850308959C019C
:100720006817790730F481E02417350718F080E066
:10073000089580E008958FE48093112080E20E9464
:10074000150C8CE30E94150C8DE20E94150C8FE4B1
:100750000E94150C8EE40E94150C08958EE480937F
:10076000112080E20E94150C8CE30E94150C8DE292
:100770000E94150C8FE40E94150C86E40E94150C53
:1007800086E40E94150C089580911120803531F087
:1007900080E58093112084E18093132080E20E9401
:1007A000150C8CE30E94150C8DE20E94150C80E55F
:1007B0000E94150C85E50E94150C8CE40E94150C16
:1007C00083E50E94150C85E40E94150C089580E2D3
:1007D0000E94150C8CE30E94150C8DE20E94150CF2
:1007E00087E50E94150C84E50E94150C86E40E94A2
:1007F000150C81E20E94150C089580930F2082E36E
:1008000080930E20089590910F20953809F442C0EE
:10081000963840F49338D1F0943858F5923809F06E
:100820005AC00DC0973809F44AC0973808F443C03D
:10083000983809F448C0993809F04DC048C081344F
:1008400009F04CC083E80E94FD030895823429F02A
:10085000833439F0813449F4089584E80E94FD031B
:10086000089585E80E94FD03089582E80E94FD0333
:100870000895823419F0833449F404C086E80E9454
:10088000FD03089587E80E94FD03089582E80E9411
:10089000FD030895823419F0833449F404C088E8D4
:1008A0000E94FD03089589E80E94FD03089582E8EF
:1008B0000E94FD03089582E880930F20089582E846
:1008C00080930F20089582E880930F20089582E896
:1008D00080930F20089582E880930F200895CF938E
:1008E000DF93EC0180EB99E06DE20E94660680EBFD
:1008F00099E06DE20E94660680EB99E06DE20E944D
:10090000660680EB99E0BE010E946A0880EB99E0E0
:100910006DE20E94660680EB99E06DE00E9466063B
:10092000CE0160E070E140E050E20E948F03813030
:1009300019F481E40E940304CE0160E070E240E01B
:1009400050E30E948F03813019F482E40E94030473
:10095000CE0160E070E440E050E50E948F038130FA
:1009600019F483E40E940304CE0160E070E740E0E4
:1009700050E80E948F03813019F484E40E9403043C
:10098000DF91CF910895CF93DF93E0E0FAE0C0A12B
:10099000D1A1848580FD12C08DE00E94150C8AE0F3
:1009A0000E94150C8DE20E94150C8DE20E94150C20
:1009B000CE010E94040ACE010E946F04DF91CF9104
:1009C00008951F920F920FB60F9211242F933F9309
:1009D0004F935F936F937F938F939F93AF93BF9347
:1009E000CF93DF93EF93FF93E0E8F3E0878184FFF9
:1009F00028C081E00E94340D80911020873511F4C9
:100A00000E94850380911020883509F040C0E0E005
:100A1000FAE0C0A1D1A1848580FD39C08DE00E949B
:100A2000150C8AE00E94150C8DE20E94150C8DE2D7
:100A30000E94150CCE010E94040ACE010E946F0490
:100A400026C081E00E94300D809110208735C9F4C6
:100A5000E0E0FAE0C0A1D1A1848580FD12C08DE064
:100A60000E94150C8AE00E94150C8DE20E94150C64
:100A70008DE20E94150CCE010E94040ACE010E9454
:100A80006F0480911020883511F40E948503FF9136
:100A9000EF91DF91CF91BF91AF919F918F917F9116
:100AA0006F915F914F913F912F910F900FBE0F90DB
:100AB0001F90189580910E20882329F081508093F3
:100AC0000E20882319F482E880930F208091112052
:100AD0008F3419F08035D1F405C080E8E0E0F6E00D
:100AE0008583089580911320882341F480E8E0E015
:100AF000F6E086838EE480931120089581508093E0
:100B0000132080E8E0E0F6E08583089580E8E0E0E7
:100B1000F6E0868308956F927F928F929F92AF92B4
:100B2000BF92CF92DF92EF92FF920F931F93CF93DA
:100B3000DF930E949E0CD09021208D3008F459C084
:100B400090E00F2EF3EF6F2EFFEF7F2EF02D680E4B
:100B5000791E77200CF44DC0CC240F2EFCE18F2E93
:100B6000F1E29F2EF02DB82CA92C8401035F1F4FBA
:100B70000F2EF2E2EF2EF0E2FF2EF02D89EF8D1511
:100B800008F4DD242D2D30E02A5F3040D401CB2D38
:100B9000DA2DC90186509F4F8A3F910534F0F70145
:100BA000E20FF31F80818C9305C08E0D9F1DFC0109
:100BB00080818C932F5F3F4F1196A017B10749F7A3
:100BC000E0912622F091272221E0919189919813BA
:100BD00020E0C017D107C9F7213021F40E94C403D7
:100BE0000E948C0CD394C3948C2D90E068167906E7
:100BF0002CF6DF91CF911F910F91FF90EF90DF9036
:100C0000CF90BF90AF909F908F907F906F900895FE
:100C1000FC0188E0E03AF80751F4A0E4B6E088E08F
:100C200011968C93119715968C93159737C088E081
:100C3000E03BF80751F4A0E4B6E080E811968C930D
:100C4000119715968C93159729C089E0E03AF8071B
:100C500051F4A0E6B6E088E011968C9311971596B2
:100C60008C9315971BC089E0E03BF80751F4A0E690
:100C7000B6E080E811968C93119715968C93159792
:100C80000DC08AE0E03AF80749F4A0E8B6E088E051
:100C900011968C93119715968C931597613039F0B6
:100CA000623051F48CEA878385EC868309C088EA38
:100CB00087838EE6868304C084EA878387E1868300
:100CC000138288E1848383E085830895FC01818118
:100CD00085FFFDCF60830895CF92DF92EF92FF9260
:100CE0000F931F93CF93DF936C01E62FF72FEF0144
:100CF00009900020E9F72197CE1BDF0B79F0E62E53
:100D0000F72E00E010E0F70161917F01C6010E941B
:100D100066060F5F1F4F0C171D07A9F7DF91CF91D4
:100D20001F910F91FF90EF90DF90CF900895CF9398
:100D3000DF93EC01673009F49DC0683090F46330B4
:100D400009F458C0643030F46130A1F1623008F029
:100D500041C020C0653009F46DC0663008F07AC02B
:100D600059C06B3009F4C6C06C3038F4693009F4EE
:100D7000A1C06A3008F0AEC08DC06D3009F4DAC091
:100D80006D3008F4C7C06E3009F4E4C06F3009F06C
:100D900000C1F0C060E30E946606CE0160E30E94DD
:100DA0006606CE0160E30E946606CE0160E30E9403
:100DB0006606EFC060E30E946606CE0160E30E9413
:100DC0006606CE0160E30E946606CE0161E30E94E2
:100DD0006606DFC060E30E946606CE0160E30E9403
:100DE0006606CE0161E30E946606CE0160E30E94C2
:100DF0006606CFC060E30E946606CE0160E30E94F3
:100E00006606CE0161E30E946606CE0161E30E94A0
:100E10006606BFC060E30E946606CE0161E30E94E1
:100E20006606CE0160E30E946606CE0160E30E9482
:100E30006606AFC060E30E946606CE0161E30E94D1
:100E40006606CE0160E30E946606CE0161E30E9461
:100E500066069FC060E30E946606CE0161E30E94C1
:100E60006606CE0161E30E946606CE0160E30E9441
:100E700066068FC060E30E946606CE0161E30E94B1
:100E80006606CE0161E30E946606CE0161E30E9420
:100E900066067FC061E30E946606CE0160E30E94A1
:100EA0006606CE0160E30E946606CE0160E30E9402
:100EB00066066FC061E30E946606CE0160E30E9491
:100EC0006606CE0160E30E946606CE0161E30E94E1
:100ED00066065FC061E30E946606CE0160E30E9481
:100EE0006606CE0161E30E946606CE0160E30E94C1
:100EF00066064FC061E30E946606CE0160E30E9471
:100F00006606CE0161E30E946606CE0161E30E949F
:100F100066063FC061E30E946606CE0161E30E945F
:100F20006606CE0160E30E946606CE0160E30E9481
:100F300066062FC061E30E946606CE0161E30E944F
:100F40006606CE0160E30E946606CE0161E30E9460
:100F500066061FC061E30E946606CE0161E30E943F
:100F60006606CE0161E30E946606CE0160E30E9440
:100F700066060FC061E30E946606CE0161E30E942F
:100F80006606CE0161E30E946606CE0161E30E941F
:100F90006606DF91CF9108951F93CF93DF93EC0105
:100FA000162F62E60E946606612F62956F70CE0171
:100FB0000E949706612F6F70CE010E949706DF9105
:100FC000CF911F910895673009F43FC0683070F4E5
:100FD000633059F1643028F46130F9F0623008F57B
:100FE00018C0653051F1663060F523C06B30E9F10F
:100FF0006C3028F4693089F16A3098F52AC06D3078
:10100000E1F16D30B0F16E30E1F16F3009F040C0C8
:101010003CC060E30E946606089561E30E94660694
:10102000089562E30E946606089563E30E946606DF
:10103000089564E30E946606089565E30E946606CB
:10104000089566E30E946606089567E30E946606B7
:10105000089568E30E946606089569E30E946606A3
:10106000089561E40E946606089562E40E9466069F
:10107000089563E40E946606089564E40E9466068B
:10108000089565E40E946606089566E40E94660677
:1010900008951F93CF93DF93EC01162F62956F7025
:1010A0000E94E307612F6F70CE010E94E307DF917A
:1010B000CF911F9108951F93CF93DF93EC01142FCD
:1010C0000E944908CE01612F0E944908DF91CF910B
:1010D0001F9108951F93CF93DF93EC01162F672F75
:1010E0000E944908CE01612F0E944908DF91CF91EB
:1010F0001F910895873009F487C0883088F48330C1
:1011000009F44EC0843028F4813081F18230D8F562
:1011100020C0853009F45EC0863008F068C04DC03C
:101120008B3009F4A5C08C3038F4893009F486C0BE
:101130008A3008F090C075C08D3009F4B3C08D308E
:1011400008F4A3C08E3009F4BAC08F3009F0D0C0C3
:10115000C3C080E30E94150C80E30E94150C80E35D
:101160000E94150C80E30E94150C089580E30E94F4
:10117000150C80E30E94150C80E30E94150C81E39E
:101180000E94150C089580E30E94150C80E30E94D4
:10119000150C81E30E94150C80E30E94150C089544
:1011A00080E30E94150C80E30E94150C81E30E94ED
:1011B000150C81E30E94150C089580E30E94150C24
:1011C00081E30E94150C80E30E94150C80E30E94CD
:1011D000150C089580E30E94150C81E30E94150C04
:1011E00080E30E94150C81E30E94150C089580E3B2
:1011F0000E94150C81E30E94150C81E30E94150CDE
:1012000080E30E94150C089580E30E94150C81E391
:101210000E94150C81E30E94150C81E30E94150CBD
:10122000089581E30E94150C80E30E94150C80E371
:101230000E94150C80E30E94150C089581E30E9422
:10124000150C80E30E94150C80E30E94150C81E3CD
:101250000E94150C089581E30E94150C80E30E9402
:10126000150C81E30E94150C80E30E94150C089573
:1012700081E30E94150C80E30E94150C81E30E941B
:10128000150C81E30E94150C089581E30E94150C52
:1012900081E30E94150C80E30E94150C80E30E94FC
:1012A000150C089581E30E94150C81E30E94150C32
:1012B00080E30E94150C81E30E94150C089581E3E0
:1012C0000E94150C81E30E94150C81E30E94150C0D
:1012D00080E30E94150C089581E30E94150C81E3C0
:1012E0000E94150C81E30E94150C81E30E94150CED
:1012F0000895CF93C82F82E60E94150C8C2F8295FB
:101300008F700E947A088C2F8F700E947A08CF917C
:101310000895873009F43FC0883070F4833059F164
:10132000843028F48130F9F0823008F518C0853017
:1013300051F1863060F523C08B30E9F18C3028F410
:10134000893089F18A3098F52AC08D30E1F18D30ED
:10135000B0F18E30E1F18F3009F040C03CC080E345
:101360000E94150C089581E30E94150C089582E3F4
:101370000E94150C089583E30E94150C089584E3E0
:101380000E94150C089585E30E94150C089586E3CC
:101390000E94150C089587E30E94150C089588E3B8
:1013A0000E94150C089589E30E94150C089581E4AC
:1013B0000E94150C089582E40E94150C089583E4A0
:1013C0000E94150C089584E40E94150C089585E48C
:1013D0000E94150C089586E40E94150C0895CF9381
:1013E000C82F82958F700E9489098C2F8F700E9460
:1013F0008909CF910895CF93C62F0E94EF098C2FB2
:101400000E94EF09CF910895CF93C82F892F0E9492
:10141000EF098C2F0E94EF09CF9108951F920F9230
:101420000FB60F9211242F933F938F939F93AF93F7
:10143000BF93EF93FF93E0912822F091292282E25B
:1014400090E212C0208130912422DC01A30FB11D53
:101450002C93209124222F5F209324222091242258
:101460002A3F10F01092242221812223A4F43091EB
:10147000242220912120321730F020912422309113
:101480002120231B06C020912422309121202650A8
:10149000231B2A3FB8F2FF91EF91BF91AF919F912B
:1014A0008F913F912F910F900FBE0F901F90189525
:1014B000E0912822F091292283818063838308951B
:1014C000E0912822F091292283818F7C83830895E3
:1014D000E0912822F09129228381826083830895FC
:1014E000E0912822F091292283818C7F83830895C3
:1014F0001F920F920FB60F9211242F933F934F9389
:101500005F936F937F938F939F93AF93BF93EF936B
:10151000FF93E0912822F0912922818185FD1BC053
:1015200030C020912522309125223F5F3093252223
:10153000309125223A3F10F010922522DC01A20FB3
:10154000B11D2C912083E0912822F0912922218144
:1015500025FD03C016C08AE291E230912921209135
:101560002522321730F02091292130912522231B8A
:1015700006C020912921309125222650231B2223A9
:1015800081F69091292180912522981730F0809141
:10159000292190912522891B06C0809129219091B3
:1015A00025228650891B882319F00E94680A02C0F0
:1015B0000E94700AFF91EF91BF91AF919F918F911F
:1015C0007F916F915F914F913F912F910F900FBE3F
:1015D0000F901F901895E0912822F0912922818187
:1015E00085FD1BC030C020912522309125223F5F10
:1015F00030932522309125223A3F10F01092252277
:10160000DC01A20FB11D2C912083E0912822F091E2
:101610002922218125FD03C016C08AE291E2309182
:10162000292120912522321730F020912921309153
:101630002522231B06C020912921309125222650E6
:10164000231B222381F6909129218091252298172E
:1016500030F08091292190912522891B06C080912C
:101660002921909125228650891B882319F00E94F8
:10167000680A08950E94700A0895E0912822F09166
:10168000292282E290E212C0208130912422DC01E2
:10169000A30FB11D2C93209124222F5F209324228D
:1016A000209124222A3F10F010922422218122230B
:1016B000A4F43091242220912120321730F020917F
:1016C000242230912120231B06C020912422309116
:1016D00021202650231B2A3FB8F208951092292179
:1016E0001092252208959091292180912522981702
:1016F00030F08091292190912522891B08958091B5
:101700002921909125228650891B0895CF92DF923E
:10171000EF92FF920F931F93CF93DF93E82FF92F50
:10172000DF010D900020E9F711976D01CE1ADF0A55
:1017300009F472C0E82EF92E00E010E0CAE2D1E20E
:10174000F70181917F0190912921FE01E90FF11D9F
:101750008083809129218F5F809329218091292185
:101760008A3F10F010922921A0912822B0912922BD
:1017700011968C91119785FD1CC02FC08091252258
:10178000909125229F5F90932522909125229A3F48
:1017900010F010922522FE01E80FF11D80818C933C
:1017A000A0912822B091292211968C91119785FF42
:1017B00014C09091292180912522981730F08091B2
:1017C000292190912522891B06C080912921909181
:1017D00025228650891B882389F6909129218091A2
:1017E0002522981730F08091292190912522891B7C
:1017F00006C080912921909125228650891B88233B
:1018000019F00E94680A02C00E94700A0F5F1F4F01
:101810000C151D0509F094CFDF91CF911F910F9109
:10182000FF90EF90DF90CF90089590912921EAE208
:10183000F1E2E90FF11D8083809129218F5F809370
:101840002921809129218A3F10F010922921E091CD
:101850002822F0912922818185FD1BC030C0209172
:101860002522309125223F5F309325223091252279
:101870003A3F10F010922522DC01A20FB11D2C91ED
:101880002083E0912822F0912922218125FD03C0A7
:1018900016C08AE291E23091292120912522321747
:1018A00030F02091292130912522231B06C0209160
:1018B0002921309125222650231B222381F6909145
:1018C000292180912522981730F08091292190912B
:1018D0002522891B06C080912921909125228650BE
:1018E000891B882319F00E94680A08950E94700AD3
:1018F000089580912522909125229F5F9093252223
:10190000909125229A3F10F010922522EAE2F1E20E
:10191000E80FF11D80810895109224221092212059
:10192000089580932822909329220E946E0B0E9492
:101930008C0C0E94580A0E94680A089590912422F3
:1019400080912120981730F08091242290912120BD
:10195000891B089580912422909121208650891B13
:10196000089590912422E2E2F0E2E90FF11D8083D4
:10197000809124228F5F80932422809124228A3FA9
:1019800010F010922422089580912120909121201E
:101990009F5F90932120909121209A3F10F0109208
:1019A0002120E2E2F0E2E80FF11D8081089590919C
:1019B000242280912120981730F080912422909148
:1019C0002120891B06C080912422909121208650DD
:1019D000891B882311F00E948B050895E0E6F6E04C
:1019E00081E18183858380E4808B848BE0E0F9E072
:1019F00057E0508343E141838FEF90E086A397A3A4
:101A000020E830E020A731A7E0E4F9E050834183EB
:101A100086A397A380E190E080A791A7E0E4F6E099
:101A20008CE3828388E9858B848B838B84E0828737
:101A300083E081878AE9828B10921520089588239C
:101A400019F0813061F406C070E0E0E4F9E060AFC5
:101A500071AF089570E0E0E0F9E060AF71AF089514
:101A600060E00E941F0D08956FEF0E941F0D089502
:101A7000882319F0813061F406C0E0E4F9E080A524
:101A8000809580A70895E0E0F9E080A5809580A783
:101A9000089508951F920F920FB60F9211248F93FD
:101AA000EF93FF93E0E4F6E082898A3931F489E923
:101AB000828B81E08093152007C08AE9E0E4F6E09C
:101AC000828B82E080931520FF91EF918F910F9090
:101AD0000FBE0F901F9018950895813069F08130E6
:101AE00018F08230C9F410C0E0E4F6E0908581E09F
:101AF00095FF13C080E00895E0E4F6E0908581E072
:101B000094FF0BC080E00895E0E4F6E0908581E06A
:101B100093FF03C080E0089580E0089580E00E9474
:101B20006D0D813051F480911420853379F085E377
:101B3000809314200E944F0309C0809114208633A3
:101B400029F086E3809314200E94730381E00E94B1
:101B50006D0D813061F40E947E03882321F481E0C1
:101B60000E9400010FC088E50E9482030BC00E9402
:101B70007E03882321F482E00E94000103C087E5F0
:101B80000E94820382E00E946D0D813041F40E9428
:101B90007E03882351F482E00E94F00008950E94A1
:101BA0007E03882311F40E94F0000895A1E21A2E0A
:101BB000AA1BBB1BFD010DC0AA1FBB1FEE1FFF1FF1
:101BC000A217B307E407F50720F0A21BB30BE40B41
:101BD000F50B661F771F881F991F1A9469F7609588
:101BE0007095809590959B01AC01BD01CF01089542
:101BF000E0ECF1E0A785A7FDFDCFA485A860A48750
:101C00006050704F0C94410E03D080819927089545
:101C1000E0ECF1E0378537FDFDCF3485386034875F
:101C2000FC01E050F04F0895DC01CB0103C02D9181
:101C30000E941F0E41505040D0F70895262FE0EC2F
:101C4000F1E0378537FDFDCF3485377F3487378521
:101C500031FF09C036E3328738ED34BF31E03387D6
:101C6000378537FDFDCF33E332878083918312823E
:101C7000248325E3228728ED31E024BF33870196B2
:101C80000895FB01DC0102C001900D9241505040CB
:081C9000D8F70895F894FFCF86
:101C98006C6576656C5F726573746172740032820C
:021CA800574E95
:00000001FF
